:100000000C945D000C9485000C9485000C94850084
:100010000C9485000C9485000C9485000C9485004C
:100020000C9485000C9485000C9485000C9485003C
:100030000C9485000C9485000C9485000C9485002C
:100040000C946F020C9485000C9485000C94850030
:100050000C9485000C9485000C9485000C9485000C
:100060000C9485000C94850000000008000201003B
:100070000003040700000000000000000000000072
:10008000250028002B0000000000240027002A0083
:10009000040404040404040402020202020203032E
:1000A0000303030301020408102040800102040836
:1000B0001020010204081020DD0311241FBECFEF21
:1000C000D8E0DEBFCDBF11E0A0E0B1E0E6E5F8E0AA
:1000D00002C005900D92A434B107D9F721E0A4E441
:1000E000B1E001C01D92A936B207E1F710E0CDE5FD
:1000F000D0E004C02197FE010E941E04CC35D10738
:10010000C9F70E94B9020C9429040C94000090E0F5
:10011000FC01EC55FF4F2491FC01E057FF4F849107
:10012000882399F090E0880F991FFC01EA57FF4F50
:10013000A591B491FC01E458FF4F859194918FB73C
:10014000F894EC91E22BEC938FBF0895CF92DF925D
:10015000EF92FF920F931F93CF93DF936C017A017D
:100160008B01C0E0D0E0CE15DF0589F0D8016D919C
:100170008D01D601ED91FC910190F081E02DC60139
:100180000995892B11F47E0102C02196ECCFC7019D
:10019000DF91CF911F910F91FF90EF90DF90CF9063
:1001A000089590E0FC01E859FF4F3491FC01EC55B3
:1001B000FF4F2491FC01E057FF4FE491EE2309F437
:1001C0003BC0332339F1333091F038F43130A9F0AA
:1001D000323001F584B58F7D12C0373091F0383060
:1001E000A1F03430B9F4809180008F7D03C08091FC
:1001F00080008F77809380000DC084B58F7784BD99
:1002000009C08091B0008F7703C08091B0008F7DCE
:100210008093B000F0E0EE0FFF1FE458FF4FA59170
:10022000B4918FB7F894EC91611103C020952E23FF
:1002300001C02E2B2C938FBF0895CF93DF93EC0139
:1002400060E08E810E94D10061E08E810E94D10029
:1002500060E08E810E94D1008BE891E00197F1F778
:10026000DF91CF910895CF92DF92EF92FF920F939B
:100270001F93CF93DF937C016C0187E0C80ED11CE4
:10028000C0E0D0E0062F10E0B8010C2E02C075953A
:1002900067950A94E2F76170F60181916F010E94FF
:1002A000D1002196C430D10579F7C701DF91CF91F4
:1002B0001F910F91FF90EF90DF90CF900C941D0154
:1002C000CF92DF92EF92FF920F931F93CF93DF9322
:1002D000EC01F62E642F8C810E94D1008D818F3F1E
:1002E00019F060E00E94D1008F850F2D10E084FF8F
:1002F00025C06E0187E0C80ED11CE12CF12CB8019D
:100300000E2C02C0759567950A94E2F76170F601AC
:1003100081916F010E94D100FFEFEF1AFF0A88E080
:10032000E816F10461F7CE01DF91CF911F910F9193
:10033000FF90EF90DF90CF900C941D01B80184E006
:10034000759567958A95E1F7CE010E9433016F2D6F
:10035000CE01DF91CF911F910F91FF90EF90DF9031
:10036000CF900C94330141E00E94600181E090E065
:10037000089540E00C946001EF92FF920F931F9359
:10038000CF93DF93EC01623018F08F8588608F8700
:100390006B8B1C8A80E48D8B80E18E8B80E58F8B4C
:1003A0008C810E9487008D818F3F11F00E94870011
:1003B0008E810E9487007E0187E0E80EF11C00E03C
:1003C00010E08F8584FD03C084E090E002C088E0E7
:1003D00090E00817190744F4F70181917F010E940A
:1003E00087000F5F1F4FEDCF8BE39DE00197F1F783
:1003F00060E08C810E94D10060E08E810E94D1007B
:100400008D818F3F19F060E00E94D1006F8564FDFF
:100410001DC063E0CE010E9433010BE416E4C80165
:100420000197F1F763E0CE010E943301C801019703
:10043000F1F763E0CE010E94330183E592E001977A
:10044000F1F762E0CE010E94330116C06062CE0176
:100450000E94B9018BE496E40197F1F76F85606221
:10046000CE010E94B90183E592E00197F1F76F8513
:100470006062CE010E94B9016F856062CE010E9468
:10048000B90184E0888B6CE0CE010E94B90161E083
:10049000CE010E94B9018BE39FE10197F1F782E061
:1004A000898B66E0CE01DF91CF911F910F91FF9074
:1004B000EF900C94B901009769F0FC0101900020C5
:1004C000E9F73197AF01481B590BBC0181E591E079
:1004D0000C94A60080E090E008950E9424041F92EE
:1004E0000F920FB60F9211242F933F938F939F93E8
:1004F000AF93BF938091490190914A01A0914B0124
:10050000B0914C013091480123E0230F2D3720F4A6
:100510000196A11DB11D05C026E8230F0296A11D5D
:10052000B11D209348018093490190934A01A09303
:100530004B01B0934C018091440190914501A091F1
:100540004601B09147010196A11DB11D8093440160
:1005500090934501A0934601B0934701BF91AF919D
:100560009F918F913F912F910F900FBE0F901F90F1
:100570001895CF93DF93CDB7DEB7A1970FB6F89458
:10058000DEBF0FBECDBF789484B5826084BD84B5D4
:10059000816084BD85B5826085BD85B5816085BD7E
:1005A00080916E00816080936E0010928100809136
:1005B00081008260809381008091810081608093BE
:1005C0008100809180008160809380008091B100E3
:1005D00084608093B1008091B00081608093B0000E
:1005E00080917A00846080937A0080917A008260A2
:1005F00080937A0080917A00816080937A00809164
:100600007A00806880937A001092C10062E081E5F0
:1006100091E00E94BC01E1E0809164018111E0E081
:10062000E195F0E0EF5AFE4F6489606881E591E062
:100630000E94B90188E091E00E945B0298EEC92E09
:1006400093E0D92EE12CF12C2AE0422E512C612C82
:10065000712C30E0A32E30E0B32E80E4982EE09190
:100660006401E23010F4E15001C0E1E0F0E0EF5A43
:10067000FE4F6489675F606881E591E00E94B9017F
:100680002FB7F8946091490170914A0180914B0114
:1006900090914C012FBFA70196010E94FC0319A263
:1006A0008E010F5D1F4FCA01B901A30192010E9483
:1006B000FC03605DF80162938F012115310541054E
:1006C000510589F7CF010E945B02E0916401E2309D
:1006D00010F4E15001C0E1E0F0E0EF5AFE4F648910
:1006E000606881E591E00E94B90190927C00809160
:1006F0007A00806480937A0080917A0086FDFCCF36
:10070000809178002091790090E0922B90934E0197
:1007100080934D01893EF3E09F078CF4823391056D
:100720008CF0843B91058CF08A3421E0920784F0B0
:100730008830E2E09E077CF0823593407CF085E0D3
:1007400090E00EC080E090E00BC081E090E008C037
:1007500082E090E005C083E090E002C084E090E099
:100760009093500180934F018330910579F034F4D8
:100770008130910571F0029779F005C084309105C0
:1007800071F0059779F089E191E00EC080E291E087
:100790000BC088E291E008C08FE291E005C086E3DB
:1007A00091E002C08DE391E00E945B02A114B104CC
:1007B00009F455CF0E94000050CFE1E5F1E013822B
:1007C000128284E091E09183808388E084838FEFBC
:1007D000858389E0868384E0878385E0808786E05F
:1007E000818787E08287138614861586168617868A
:1007F00061E0CF010C94BC01A1E21A2EAA1BBB1B25
:10080000FD010DC0AA1FBB1FEE1FFF1FA217B307DC
:10081000E407F50720F0A21BB30BE40BF50B661FF2
:10082000771F881F991F1A9469F7609570958095B6
:1008300090959B01AC01BD01CF010895EE0FFF1F04
:100840000590F491E02D099481E090E0F8940C94E7
:060850002904F894FFCF1B
:1008560000000000B301A600507573682074686537
:1008660020627574746F6E730052494748542000B5
:100876004C4546542020200055502020202000447E
:100886004F574E20200053454C454354004E4F4E83
:0408960045202000D9
:00000001FF
