:100000000C94E2000C940A010C940A010C940A016D
:100010000C940A010C940A010C940A010C940A0134
:100020000C940A010C940A010C940A010C940A0124
:100030000C940A010C940A010C940A010C940A0114
:100040000C942D060C940A010C94FB050C94D50518
:100050000C940A010C940A010C940A010C940A01F4
:100060000C9477060C940A01005EBCE2613FDD83CC
:10007000C29C7E20A3FD1F419DC3217FFCA2401E88
:100080005F01E3BD3E6082DC237D9FC1421CFEA078
:10009000E1BF5D0380DE3C62BEE0025CDF81633D68
:1000A0007C22C09E1D43A1FF4618FAA427799BC558
:1000B00084DA3866E5BB5907DB856739BAE4065848
:1000C0001947A5FB7826C49A653BD987045AB8E638
:1000D000A7F91B45C6987A24F8A6441A99C7257B28
:1000E0003A6486D85B05E7B98CD2306EEDB3510F18
:1000F0004E10F2AC2F7193CD114FADF3702ECC9208
:10010000D38D6F31B2EC0E50AFF1134DCE90722CF7
:100110006D33D18F0C52B0EE326C8ED0530DEFB1E7
:10012000F0AE4C1291CF2D73CA947628ABF51749D7
:100130000856B4EA6937D58B5709EBB536688AD4C7
:1001400095CB2977F4AA4816E9B7550B88D6346AB7
:100150002B7597C94A14F6A8742AC896154BA9F7A7
:10016000B6E80A54D7896B35000000080002010088
:100170000003040700000000000000000000000071
:10018000250028002B0000000000240027002A0082
:1001900000000000230026002900040404040404D5
:1001A0000404020202020202030303030303010226
:1001B00004081020408001020408102001020408F5
:1001C00010201B0C11241FBECFEFD8E0DEBFCDBF27
:1001D00011E0A0E0B1E0E0E4FAE102C005900D9288
:1001E000A634B107D9F723E0A6E4B1E001C01D921F
:1001F000AC36B207E1F710E0C2EED0E004C02197C0
:10020000FE010E94130DC13ED107C9F70E94670984
:100210000C941E0D0C940000CF92DF92EF92FF928F
:100220000F931F93CF93DF936C017A018B01C0E092
:10023000D0E0CE15DF0589F0D8016D918D01D60192
:10024000ED91FC910190F081E02DC6010995892B7B
:1002500011F47E0102C02196ECCFC701DF91CF914E
:100260001F910F91FF90EF90DF90CF900895FC01C8
:10027000918D828D981761F0828DDF01A80FB11DDD
:100280005D968C91928D9F5F9F73928F90E0089501
:100290008FEF9FEF0895FC01918D828D981731F0BB
:1002A000828DE80FF11D858D90E008958FEF9FEF0F
:1002B0000895FC01918D228D892F90E0805C9F4FE5
:1002C000821B91098F739927089589EA92E00E9411
:1002D000590121E0892B09F420E0822F0895FC01C7
:1002E000848DDF01A80FB11DA35ABF4F2C91848DBF
:1002F00090E001968F739927848FA689B7892C93F4
:10030000A089B1898C9180648C93938D848D98138E
:1003100006C00288F389E02D80818F7D8083089557
:10032000EF92FF920F931F93CF93DF93EC0181E045
:10033000888F9B8D8C8D981305C0E889F989808101
:1003400085FD24C0F62E0B8D10E00F5F1F4F0F733D
:100350001127E02E8C8DE8120CC00FB607FCFACFE7
:10036000E889F989808185FFF5CFCE010E946F0170
:10037000F1CF8B8DFE01E80FF11DE35AFF4FF082A4
:100380000B8FEA89FB898081806207C0EE89FF8933
:100390006083E889F98980818064808381E090E0CE
:1003A000DF91CF911F910F91FF90EF900895CF9320
:1003B000DF93EC01888D8823C9F0EA89FB8980816D
:1003C00085FD05C0A889B9898C9186FD0FC00FB63F
:1003D00007FCF5CF808185FFF2CFA889B9898C9180
:1003E00085FFEDCFCE010E946F01E7CFDF91CF9166
:1003F000089580E090E0892B29F00E946501811129
:100400000C94000008953FB7F894809110029091E9
:100410001102A0911202B091130226B5A89B05C04B
:100420002F3F19F00196A11DB11D3FBFBA2FA92F73
:10043000982F8827820F911DA11DB11DBC01CD01F0
:1004400042E0660F771F881F991F4A95D1F70895DC
:100450008F929F92AF92BF92CF92DF92EF92FF92D4
:100460006B017C010E9403024B015C01C114D104A9
:10047000E104F104F1F00E940302DC01CB018819D0
:100480009909AA09BB09883E9340A105B10570F3FB
:1004900021E0C21AD108E108F10888EE880E83E055
:1004A000981EA11CB11CC114D104E104F10419F778
:1004B000DDCFFF90EF90DF90CF90BF90AF909F90F7
:1004C0008F90089585ED8093BC008091BC0084FDE1
:1004D000FCCF1092160208954091C201262F30E001
:1004E000240F311D21323105DCF420911602243015
:1004F000C9F4FC0180E090E0861758F43091C20105
:100500002191DC01A056BE4FA30FB11D2C93019683
:10051000F3CF8091C201680F6093C20180E008951B
:1005200081E0089582E00895089581E090E030919F
:100530001A0220911902321710F480E090E0919590
:1005400081959109089580911A0290911902891755
:1005500030F48F5F80931A0280E090E008958FEF6F
:100560009FEF08958091190290E020911A02821B5A
:1005700091090895CF92DF92EF92FF920F931F930C
:10058000CF93DF937C01262F972F8A0180919F01C3
:10059000882391F0C62FD72F6E01C40ED51ECC151F
:1005A000DD0571F06991D701ED91FC910190F08129
:1005B000E02DC7010995F3CF642F822F0E946C02B2
:1005C000C801DF91CF911F910F91FF90EF90DF90C5
:1005D000CF900895CF93DF931F92CDB7DEB7698395
:1005E00020919F012223D1F020911702203240F068
:1005F00021E030E0FC013383228380E090E015C0ED
:1006000080911802E82FF0E0E158FE4F9981908325
:100610008F5F809318028093170205C061E0CE01BE
:1006200001960E946C0281E090E00F90DF91CF91E3
:100630000895CF93FC01C48121E020939F01C093D2
:100640007E0110921802109217028385682B86E4AF
:1006500093E00E94EA0280911702813208F046C0BE
:10066000909116029111FCCF92E09093160291E0C6
:10067000909315029FEF9093E701109209028093E7
:100680000802AFE7B1E028EE31E0F9019E2F921B9E
:10069000981718F49D919193F9CF10920A028091C6
:1006A0000A02CC0FC82BC0930A0280911402813039
:1006B00061F41092140280910A028093BB00809131
:1006C000BC0083FDF8CF85EC01C085EE8093BC00B3
:1006D000809116028230E1F38091E7018F3F31F083
:1006E0008091E701803211F08091E70110921802A9
:1006F0001092170210929F01CF9108950F931F93AC
:10070000CF938C01C62F0E9419036C2F6460C8011F
:100710000E9419036C2F6B7FC8010E94190383ECA0
:1007200090E00197F1F7CF911F910F9108950E94EA
:10073000190D6115710579F0FB0101900020E9F7B1
:100740003197AF01461B570BDC01ED91FC91028004
:10075000F381E02D099480E090E008952F923F927C
:100760004F925F926F927F928F929F92AF92BF92C1
:10077000CF92DF92EF92FF920F931F93CF93DF936D
:10078000CDB7DEB765970FB6F894DEBF0FBECDBF0D
:1007900010925D0310925F0310925E03EDE5F3E0AB
:1007A000129283E0E535F807D9F710927D01109297
:1007B0007C0180E197E29093A8028093A7021092B7
:1007C000A6021092A5025E0195E1A90EB11CDE0100
:1007D00011967D01E9E05E2E5A0EF8E04F2E4A0E8A
:1007E00080915F03811104C00E948408811107C0B9
:1007F00010925D0310925F0310925E032BC160E0C4
:1008000080EF0E94230801E0D12CC12C11E00E944E
:10081000CC078D8B0E94CC079D89913019F48130D3
:10082000C1F435C02D2D30E098131DC080915D03BB
:10083000181738F4F901EE5AFC4F8381802349F4EC
:1008400002C0181731F090E0193060F410935E0385
:1008500009C0ED2DF0E0EE5AFC4F8381802B83839D
:1008600091E009C0C12EF901EE5AFC4F2381802F7F
:10087000809582238383892F0E94F1071F5F000FD9
:1008800011F4D39401E0B7E0BD1508F0C0CF1134E6
:1008900008F4AECFC0925D03C11003C081E0809325
:1008A0005F0380915503882309F4A2CFA5E5B3E047
:1008B000CE010D966C01FC018D918193EA15FB052B
:1008C000D9F70E948408CE010D960E945E0861E06F
:1008D00084E40E94230868EE73E080E090E00E94C8
:1008E00028020E948408CE010D960E945E0860E0F6
:1008F0008EEB0E9423083701470108E010E0222414
:100900002394312C0E94CC0781113228220C0150F3
:100910001109C1F7F40131924F015E12EECFE0E010
:10092000461449F0D3018D913D01E827F0E0E859E4
:10093000FF4FE491F5CF8985E81739F060E371E066
:1009400089EA92E00E9499034BCF8981282F30E0F9
:1009500030937B0120937A018A8190E09093790112
:1009600080937801982F8827820F931F90937701A7
:10097000809376019C012227307830937501209373
:100980007401232B39F0919581959109909377010A
:1009900080937601809176019091770146E0489F9F
:1009A0009001499F300D112497FD039695958795E9
:1009B00095958795280F391F309373012093720105
:1009C000C90164E670E00E94C90C709371016093E4
:1009D000700190936F0180936E0180917C019091E2
:1009E0007D01AC0163E0440F551F6A95E1F7F60104
:1009F00061916F01F801E40FF51FE25BFE4F608328
:100A00000F5F1F4F0830110591F7FC01EE0FFF1F1C
:100A1000EA5BFE4F318320834091A7025091A802E8
:100A20002417350724F43093A8022093A70240919D
:100A3000A5025091A6024217530724F43093A60250
:100A40002093A502019690937D0180937C010497E9
:100A500009F0C6CE65960FB6F894DEBF0FBECDBFC7
:100A6000DF91CF911F910F91FF90EF90DF90CF908A
:100A7000BF90AF909F908F907F906F905F904F90BE
:100A80003F902F9008954F925F926F927F92EF92D6
:100A9000FF920F931F93CF93DF93CDB7DEB7A1974C
:100AA0000FB6F894DEBF0FBECDBF7C01FA01CB01BB
:100AB00019A2223008F42AE08E010F5D1F4F422E4A
:100AC000512C612C712CBF01A30192010E94DD0CFD
:100AD000F901CA01015011096A3014F4605D01C0C6
:100AE000695CD8016C93232B242B252B61F7B8016B
:100AF000C7010E949903A1960FB6F894DEBF0FBEFE
:100B0000CDBFDF91CF911F910F91FF90EF907F901C
:100B10006F905F904F900895DC01ED91FC910190F2
:100B2000F081E02D09940F931F93CF93DF93DC01A5
:100B30002D913D913093520220935102FB0141913E
:100B400051914496CD91DD91C217D3070CF49E01CB
:100B5000C191D1914C175D070CF4AE01A817B907EC
:100B600089F750934E0240934D02309352022093E6
:100B70005102EB018B010C5E1F4F6991799189EA5B
:100B800092E00E94BB0860E289EA92E00E948C0534
:100B9000C017D10791F763E471E089EA92E0DF9131
:100BA000CF911F910F910C9499031F920F920FB642
:100BB0000F9211242F933F934F935F936F937F93E3
:100BC0008F939F93AF93BF93EF93FF9389EA92E044
:100BD0000E946F01FF91EF91BF91AF919F918F9113
:100BE0007F916F915F914F913F912F910F900FBE29
:100BF0000F901F9018951F920F920FB60F9211240D
:100C00002F938F939F93EF93FF93E091B902F0910D
:100C1000BA028081E091BF02F091C00282FD12C051
:100C200090818091C2028F5F8F732091C3028217DF
:100C300051F0E091C202F0E0E755FD4F958F8093AF
:100C4000C20201C08081FF91EF919F918F912F91FE
:100C50000F900FBE0F901F9018951F920F920FB616
:100C60000F9211242F933F938F939F93AF93BF9332
:100C700080910C0290910D02A0910E02B0910F0292
:100C800030910B0223E0230F2D3720F40196A11D94
:100C9000B11D05C026E8230F0296A11DB11D2093AA
:100CA0000B0280930C0290930D02A0930E02B0935E
:100CB0000F028091100290911102A0911202B09146
:100CC00013020196A11DB11D809310029093110291
:100CD000A0931202B0931302BF91AF919F918F9195
:100CE0003F912F910F900FBE0F901F9018951F925C
:100CF0000F920FB60F9211242F933F934F935F9350
:100D00006F937F938F939F93AF93BF93EF93FF93D3
:100D10008091B900887F803609F49CC068F58832DC
:100D200009F45BC090F4803109F454C038F488238E
:100D300009F4F6C0883009F44DC0F6C0883109F4D2
:100D40004CC0803209F45DC0EFC0803409F468C043
:100D500048F4803309F455C0883309F0E5C0809326
:100D6000E701D8C0803509F44FC0883509F45DC06B
:100D7000883409F0D9C0D6C0883909F4C7C0A8F4AE
:100D8000883709F467C038F4883609F463C08037BF
:100D900009F460C0C9C0883809F4B8C0803909F4C2
:100DA0005FC0803809F0C0C05BC0803B09F486C0DA
:100DB00038F4803A09F466C0883A09F47FC0B4C0B8
:100DC000803C09F4A7C0883C09F4A4C0883B09F41E
:100DD0008AC0AAC080910A0210C090910902809135
:100DE0000802981770F5E091090281E08E0F809358
:100DF0000902F0E0E851FE4F80818093BB0085EC52
:100E000086C08093E7018EC0E091090281E08E0FD9
:100E1000809309028091BB00F0E0E851FE4F80838F
:100E200090910902809108026EC0E091090281E070
:100E30008E0F809309028091BB00F0E0E851FE4FD5
:100E400080838091150281116DC081E0809314022E
:100E500084EA61C083E0809316021092E601CFCF4E
:100E60008091E601803208F051C0E091E60181E016
:100E70008E0F8093E6018091BB00F0E0EA53FE4FB5
:100E80008083BDCF85EC8093BC00109216028091C8
:100E9000E601803230F4E091E601F0E0EA53FE4FE3
:100EA00010826091E60170E0E091C401F091C5010B
:100EB00086EC91E009951092E60136C084E08093BB
:100EC00016021092C3011092C201E091C001F0918C
:100ED000C10109958091C201811105C081E0809313
:100EE000C2011092A001E091C30181E08E0F8093B6
:100EF000C301F0E0E056FE4F80818093BB009091EB
:100F0000C3018091C201981708F479CF85E88093D6
:100F1000BC000AC085EC8093BC001092160204C08D
:100F20001092E7010E946202FF91EF91BF91AF9191
:100F30009F918F917F916F915F914F913F912F91F1
:100F40000F900FBE0F901F901895FF920F931F9355
:100F5000CF93DF931F92CDB7DEB78C01F62E962F7D
:100F6000907F692F642BC80149830E947E0380E132
:100F7000F89EB00111244981642BC8010F90DF91C4
:100F8000CF911F910F91FF900C947E0341E00E943E
:100F9000A50781E090E0089580915203E09153030A
:100FA000F0915403F8949181982B91832281982F8A
:100FB000909529232283A7E0B0E01197F1F72181D2
:100FC00092239183A3E2B0E01197F1F79081789496
:100FD000EFECF0E03197F1F7982381E009F480E03D
:100FE000089590915203E0915303F0915403392FE7
:100FF000309580FF13C0F8942281832F822382834F
:101000008181892B8183A3E2B0E01197F1F782817E
:10101000982B9283789487ED90E012C0F894228107
:10102000832F822382838181892B8183AFEFB0E07C
:101030001197F1F78281982B928378948FE090E05A
:101040000197F1F70895EF92FF920F931F93CF93BB
:10105000DF931F92CDB7DEB7082F88E0E82EF12C82
:1010600011E081E0912F902309F480E069830E94D0
:10107000F107110F81E0E81AF1086981E114F10428
:1010800081F7611113C0F894E0915303F091540378
:10109000918180915203809598239183E09153032D
:1010A000F091540392818923828378940F90DF9189
:1010B000CF911F910F91FF90EF900895EF92FF92C3
:1010C0000F931F93CF93DF931F92CDB7DEB7182FE7
:1010D00060E085E599830E942308E12E9981F92E2D
:1010E0008701085F1F4F60E0F70181917F010E9437
:1010F0002308E016F106B9F70F90DF91CF911F9109
:101100000F91FF90EF90089590915203E091530357
:10111000F0915403F8948181292F209582238183B3
:1011200078948DE743E050E0815021F1DA01119786
:10113000F1F730813923C1F3F894828182238283CD
:101140008181892B81837894ABE7B7E01197F1F720
:10115000F894818128232183A3E1B1E01197F1F76D
:101160008081982381E009F080E07894E3E6F6E05E
:101170003197F1F70895CF92DF92EF92FF920F939C
:101180001F93CF93DF936B01770FEE08FF08F7FEF5
:101190001BC0EC016DE20E948C058C014427552791
:1011A000BA014C195D096E097F092AE0CE010E943F
:1011B0004305800F911FDF91CF911F910F91FF90F9
:1011C000EF90DF90CF9008952AE0B701A601DF915C
:1011D000CF911F910F91FF90EF90DF90CF900C94E3
:1011E000430590E0FC01E859FE4F2491FC01E255D3
:1011F000FE4F3491FC01E656FE4FE491EE23B1F12F
:10120000222339F1233091F038F42130A9F0223033
:1012100001F584B58F7D12C0273091F02830A1F000
:101220002430B9F4809180008F7D03C080918000CC
:101230008F77809380000DC084B58F7784BD09C0FF
:101240008091B0008F7703C08091B0008F7D809334
:10125000B000F0E0EE0FFF1FE458FE4FA591B491EF
:101260008FB7F894EC913E2B3C938FBF0895CF93AA
:10127000DF93CDB7DEB728970FB6F894DEBF0FBE69
:10128000CDBF28E0E0E0F1E0DE01119601900D9283
:101290002A95E1F720916803261710F46FEF620F8B
:1012A000FE013196E60FF11DE60FF11D9081682FCA
:1012B000690F606840E080E693E028960FB6F894E6
:1012C000DEBF0FBECDBFDF91CF910C94A507789400
:1012D00084B5826084BD84B5816084BD85B582603B
:1012E00085BD85B5816085BD80916E0081608093EC
:1012F0006E00109281008091810082608093810055
:101300008091810081608093810080918000816064
:10131000809380008091B10084608093B1008091BF
:10132000B00081608093B00080917A0084608093E7
:101330007A0080917A00826080937A0080917A00AE
:10134000816080937A0080917A00806880937A002F
:101350001092C10010921A021092190210921802F3
:10136000109217021092160281E0809315021092DB
:10137000140282E10E94F10883E10E94F108809149
:10138000B9008E7F8093B9008091B9008D7F8093E2
:10139000B90088E48093B80085E48093BC00109283
:1013A000650380916A03823018F098E0909365039A
:1013B0008093680362E370E080E090E00E9428027E
:1013C00060916B0380E693E00E94190368EE73E07E
:1013D00080E090E00E94280260E380E693E00E94B3
:1013E0007E03CBE4D6E4CE010197F1F760E380E61B
:1013F00093E00E947E032197F1F760E380E693E09B
:101400000E947E0383E592E00197F1F760E280E6B7
:1014100093E00E947E0360916503606240E080E695
:1014200093E00E94A50784E08093660340E06CE0AF
:1014300080E693E00E94A50740E061E080E693E04B
:101440000E94A507CBE3DFE1CE010197F1F712E09F
:101450001093670340E066E080E693E00E94A507F2
:1014600040E062E080E693E00E94A5072197F1F753
:1014700088E080936B0360E080E693E00E941903AC
:10148000E091B902F091BA021083E091B502F091B7
:10149000B6021082E091B702F091B8028FEC80831F
:1014A0001092C102E091BD02F091BE0286E08083FD
:1014B000E091BB02F091BC02808180618083E09169
:1014C000BB02F091BC02808188608083E091BB0206
:1014D000F091BC02808180688083E091BB02F09132
:1014E000BC0280818F7D80830E94AE032091A70281
:1014F0003091A8028091A5029091A602E1E9F2E064
:1015000007E612E065E372E04DE752E0C3E5D2E0A2
:10151000B1E2EB2EB2E0FB2E21933193D8012D9353
:101520003D938D01DB012D933D93BD01DA018D9338
:101530009D93AD0189939993D7018D939D937D01DF
:10154000B2E0E53AFB0741F73093500220934F0297
:1015500090934C0280934B023093200220931F0201
:1015600090931E0280931D02CBE3DFE160E083E1F4
:101570000E9437096AE280E693E00E948C050E948F
:10158000AE0360E083E10E94370960E280E693E009
:101590000E948C0540E061E080E693E00E94A50790
:1015A000CE010197F1F760E080E00E943709609179
:1015B000A7027091A80280E693E00E94BB0860E257
:1015C00080E693E00E948C056091A5027091A602CE
:1015D00080E693E00E94BB086091A7027091A80288
:1015E00089EA92E00E94BB0860E289EA92E00E94E8
:1015F0008C05C090A502D090A6020D2C000CEE0820
:10160000FF08F7FE0EC06DE289EA92E00E948C05A9
:1016100044275527BA014C195D096E097F092AE054
:1016200003C02AE0B701A60189EA92E00E944305BF
:1016300063E471E089EA92E00E94990380917B0261
:1016400090917C029C01220F331FF901EF56FD4F50
:101650004091A7025091A80251834083F901E358B9
:10166000FD4F4091A5025091A602518340830196FF
:101670008A3091052CF490937C0280937B0204C005
:1016800010927C0210927B026DE772E081E992E099
:101690000E94930580917B0290917C02892B09F036
:1016A00076C08091490290914A029C01220F331F1B
:1016B000F901E959FD4F4091510250915202518375
:1016C0004083F901ED5AFD4F40914D0250914E0279
:1016D0005183408301968A3091052CF490934A02FD
:1016E0008093490204C010924A021092490263E5B5
:1016F00072E087E692E00E9493056091510270913A
:1017000052027093500260934F0240914D025091EB
:101710004E0250934C0240934B02809149029091AB
:101720004A02892BA1F580911B0290911C029C0119
:10173000220F331FF901EB5CFD4F71836083F901C8
:10174000EF5DFD4F5183408301968A3091052CF463
:1017500090931C0280931B0204C010921C021092F2
:101760001B0261E272E085E392E00E9493058091A2
:101770005102909152029093200280931F02809117
:101780004D0290914E0290931E0280931D0261E0E3
:1017900080E00E943709609151027091520280E608
:1017A00093E00E94BB0860E280E693E00E948C0513
:1017B00060914D0270914E0280E693E00E94BB085A
:1017C00062E080E00E94370960914F027091500200
:1017D00080E693E00E94BB0860E280E693E00E940E
:1017E0008C0560914B0270914C0280E693E00E9460
:1017F000BB0863E080E00E94370960911F0270918E
:10180000200280E693E00E94BB0860E280E693E05D
:101810000E948C0560911D0270911E0280E693E08B
:101820000E94BB0868EE73E080E090E00E9428020E
:101830000E94F9019BCECF93DF931092AC021092DD
:10184000AB0288EE93E0A0E0B0E08093AD0290930D
:10185000AE02A093AF02B093B0022CE031E030931F
:10186000AA022093A90225EC30E03093B60220931F
:10187000B50224EC30E03093B8022093B70220EC9C
:1018800030E03093BA022093B90221EC30E030937B
:10189000BC022093BB0222EC30E03093BE022093C6
:1018A000BD0226EC30E03093C0022093BF021092BC
:1018B000C2021092C3021092C4021092C50210928A
:1018C00049031092480380934A0390934B03A093DB
:1018D0004C03B0934D038CE191E0909347038093C8
:1018E000460310926303109262038CE291E090939E
:1018F00061038093600387E28093640384E18093B3
:10190000690384E080936A0310926B03E0EBF1E0DB
:101910002491ECE9F1E084918823C1F090E0880FF4
:10192000991FFC01EA57FE4FC591D491FC01E45880
:10193000FE4FA591B4919FB7F8948881E22FE0956E
:101940008E2388838C91E823EC939FBFE0EBF1E03A
:10195000E491E0935203ECE9F1E0E491F0E0EE0F62
:10196000FF1FE057FE4F859194919093540380930D
:10197000530310925D0310925F0310925E03EDE536
:10198000F3E0129283E0E535F807D9F7DF91CF91C4
:10199000089597FB072E16F4009407D077FD09D021
:1019A0000E94FF0C07FC05D03EF4909581959F4F57
:1019B0000895709561957F4F0895A1E21A2EAA1B94
:1019C000BB1BFD010DC0AA1FBB1FEE1FFF1FA217EF
:1019D000B307E407F50720F0A21BB30BE40BF50BEC
:1019E000661F771F881F991F1A9469F76095709575
:1019F000809590959B01AC01BD01CF010895AA1B74
:101A0000BB1B51E107C0AA1FBB1FA617B70710F0E9
:101A1000A61BB70B881F991F5A95A9F7809590951B
:101A2000BC01CD010895EE0FFF1F0590F491E02D4C
:101A3000099481E090E0F8940C941E0DF894FFCF87
:101A400000004000140054000000000090010C0150
:101A5000590137014B01D70100000000EA02BA0228
:101A6000B202A3029502940200000000C6070C0116
:101A7000435243206973206E6F742076616C6964F1
:061A8000210A000D0A001E
:00000001FF
